:107800000C943E3C0C945B3C0C945B3C0C945B3CB9
:107810000C945B3C0C945B3C0C945B3C0C945B3C8C
:107820000C945B3C0C945B3C0C945B3C0C945B3C7C
:107830000C945B3C0C945B3C0C945B3C0C945B3C6C
:107840000C945B3C0C945B3C0C945B3C0C945B3C5C
:107850000C945B3C0C945B3C0C945B3C0C945B3C4C
:107860000C945B3C0C945B3C0C945B3C0C945B3C3C
:107870000C945B3C0C945B3C0C945B3C11241FBE51
:10788000CFEFD8E0DEBFCDBF11E0A0E0B1E0E8E986
:10789000FFE702C005900D92A230B107D9F712E0C0
:1078A000A2E0B1E001C01D92AD30B107E1F70E9446
:1078B000373D0C94CA3F0C94003C982F95959595B4
:1078C00095959595905D8F708A307CF0282F295A78
:1078D0008091C00085FFFCCF9093C6008091C000CE
:1078E00085FFFCCF2093C6000895282F205DF0CFA0
:1078F000982F8091C00085FFFCCF9093C60008951B
:10790000EF92FF920F931F93EE24FF248701809143
:10791000C00087FD17C00894E11CF11C011D111D5A
:1079200081E4E81682E4F8068FE0080780E0180793
:1079300070F3E0910401F091050109958091C00078
:1079400087FFE9CF8091C6001F910F91FF90EF90C4
:1079500008950E94803C982F8091C00085FFFCCF45
:107960009093C60091362CF490330CF09053892FED
:1079700008959755892F08951F930E94A93C182FA9
:107980000E94A93C1295107F810F1F9108951F93AB
:10799000182F882321F00E94803C1150E1F71F919D
:1079A00008951F93182F0E94803C803249F08091E7
:1079B00003018F5F809303018530C1F01F9108950B
:1079C0008091C00085FFFCCF84E18093C600809148
:1079D000C00085FFFCCF1093C6008091C00085FFDA
:1079E000FCCF80E18093C6001F910895E0910401CF
:1079F000F091050109951F9108950E94803C803205
:107A000041F0809103018F5F80930301853081F005
:107A100008958091C00085FFFCCF84E18093C6006B
:107A20008091C00085FFFCCF80E18093C60008955F
:107A3000E0910401F09105010995089540E951E0B4
:107A40008823A1F02F9A28EE33E0FA013197F1F75D
:107A500021503040D1F72F9828EE33E0FA013197CA
:107A6000F1F721503040D1F7815061F708953F92EE
:107A70004F925F926F927F928F929F92AF92BF923E
:107A8000CF92DF92EF92FF920F931F93CF93DF93EA
:107A9000000080E18093C4001092C50088E18093CB
:107AA000C10086E08093C2005098589A279A81E0DE
:107AB0000E941E3D24E1F22E9EE1E92E85E9D82E9A
:107AC00008E0C02E10E1B12EAA24A394B1E49B2EAD
:107AD000A6E58A2EF2E57F2EE0E26E2E79E4572E9F
:107AE00063E5462E50E5352E0E94803C8033B1F18F
:107AF0008133B9F1803409F46FC0813409F476C060
:107B0000823409F485C0853409F488C0803531F1A8
:107B1000823521F1813511F1853509F485C086352D
:107B200009F48DC0843609F496C0843709F403C182
:107B3000853709F472C1863709F466C08091030164
:107B40008F5F80930301853079F6E0910401F09115
:107B5000050109950E94803C803351F60E94FD3C4E
:107B6000C3CF0E94803C803249F78091C00085FFDE
:107B7000FCCFF092C6008091C00085FFFCCF9092B0
:107B8000C6008091C00085FFFCCF8092C600809126
:107B9000C00085FFFCCF7092C6008091C00085FFB9
:107BA000FCCF6092C6008091C00085FFFCCF509250
:107BB000C6008091C00085FFFCCF4092C600809136
:107BC000C00085FFFCCF3092C6008091C00085FFC9
:107BD000FCCFB092C60088CF0E94803C863808F463
:107BE000BDCF0E94803C0E94FD3C7ECF0E94803C25
:107BF000803809F49CC0813809F40BC1823809F43B
:107C000030C1883909F48FC080E00E94D13C6CCF2C
:107C100084E10E94C73C0E94FD3C66CF85E00E9443
:107C2000C73C0E94FD3C60CF0E94803C80930601CF
:107C30000E94803C809307010E94FD3C55CF0E942A
:107C4000803C803309F411C183E00E94C73C80E08E
:107C50000E94D13C49CF0E94803C809309020E943F
:107C6000803C8093080280910C028E7F80930C02EE
:107C70000E94803C853409F409C1809108029091EA
:107C80000902892B89F000E010E00E94803CF80195
:107C9000E85FFE4F80830F5F1F4F80910802909135
:107CA00009020817190788F30E94803C803209F006
:107CB00045CF80910C0280FFF5C060910601709164
:107CC0000701660F771F7093070160930601A0916B
:107CD0000802B09109021097C9F0E8E0F1E09B01B9
:107CE000AD014E0F5F1FF999FECF32BD21BD8191CD
:107CF00080BDFA9AF99A2F5F3F4FE417F50799F77D
:107D00006A0F7B1F70930701609306018091C0008A
:107D100085FFFCCFF092C6008091C00085FFFCCFAC
:107D2000B092C600E1CE83E00E94D13CDDCE82E07D
:107D30000E94D13CD9CE0E94803C809309020E94CF
:107D4000803C809308028091060190910701880F82
:107D5000991F90930701809306010E94803C85340F
:107D600009F49AC080910C028E7F80930C020E94CD
:107D7000803C803209F0B8CE8091C00085FFFCCFF6
:107D8000F092C600A0910802B09109021097C1F1CB
:107D900080910C02082F0170182F16951170E09138
:107DA0000601F0910701AF014F5F5F4FBA0120E07C
:107DB00030E00023B1F4112339F494918091C00094
:107DC00085FFFCCF9093C6002F5F3F4FCB010196FC
:107DD000FA012A173B0780F4BC014F5F5F4F002375
:107DE00051F3F999FECFF2BDE1BDF89A90B58091BB
:107DF000C00085FFFCCFE6CF7093070160930601BA
:107E00008091C00085FDE5CE8091C00085FFF8CF50
:107E1000E0CE81E00E94D13C67CE0E94803C80325F
:107E200009F08CCE8091C00085FFFCCFF092C60097
:107E30008091C00085FFFCCFE092C6008091C00019
:107E400085FFFCCFD092C6008091C00085FFFCCF9B
:107E5000C092C6008091C00085FFFCCFB092C600E2
:107E600043CE80E10E94D13C3FCE0E94803C0E94E4
:107E7000803C182F0E94803C112309F483C01130EC
:107E800009F484C088E00E94D13C2ECE80910C027F
:107E9000816080930C02F1CE80910C02816080930E
:107EA0000C0265CF809107018823880F880B8A21F7
:107EB00080930B028091060190910701880F991F12
:107EC00090930701809306018091080280FF09C00A
:107ED0008091080290910902019690930902809383
:107EE0000802F894F999FECF1127E0910601F0916C
:107EF0000701C8E0D1E0809108029091090210309A
:107F000091F40091570001700130D9F303E0009320
:107F10005700E8950091570001700130D9F301E155
:107F200000935700E895099019900091570001704F
:107F30000130D9F301E000935700E8951395103410
:107F400098F011270091570001700130D9F305E036
:107F500000935700E8950091570001700130D9F364
:107F600001E100935700E8953296029709F0C7CFD8
:107F7000103011F00296E5CF11248091C00085FFEA
:107F8000C5CEC8CE8EE10E94D13CAECD85E90E941F
:087F9000D13CAACDF894FFCF0B
:027F9800800067
:040000030000780081
:00000001FF
