:020000021000EC
:10F000000C9446F80C9466F80C9466F80C9466F828
:10F010000C9466F80C9466F80C9466F80C9466F8F8
:10F020000C9466F80C9466F80C9466F80C9466F8E8
:10F030000C9466F80C9466F80C9466F80C9466F8D8
:10F040000C9466F80C9466F80C9466F80C9466F8C8
:10F050000C9466F80C9466F80C9466F80C9466F8B8
:10F060000C9466F80C9466F80C9466F80C9466F8A8
:10F070000C9466F80C9466F80C9466F80C9466F898
:10F080000C9466F80C9466F80C9466F811241FBE74
:10F09000CFEFD0E4DEBFCDBF11E0A0E0B1E0ECE304
:10F0A000FBEF01E00BBF02C007900D92A230B10749
:10F0B000D9F71BBE12E0A2E0B1E001C01D92AD3055
:10F0C000B107E1F70E94E6F90C949CFD0C9400F85E
:10F0D000982F9595959595959595905D8F708A301B
:10F0E0001CF1282F295A80910201813019F08230B9
:10F0F00071F008958091C00085FFFCCF9093C60009
:10F100008091C00085FFFCCF2093C60008958091B8
:10F11000C80085FFFCCF9093CE008091C80085FF8A
:10F12000FCCF2093CE000895282F205DDCCF982FB0
:10F1300080910201813019F0823041F00895809170
:10F14000C00085FFFCCF9093C60008958091C80051
:10F1500085FFFCCF9093CE000895EF92FF920F931E
:10F160001F9380910201813069F1823031F080E09B
:10F170001F910F91FF90EF900895EE24FF248701D7
:10F180008091C80087FD17C00894E11CF11C011D87
:10F19000111D81E0E8168CE8F8068AE0080780E097
:10F1A000180770F3E0910401F09105010995809131
:10F1B000C80087FFE9CF8091CE001F910F91FF908B
:10F1C000EF900895EE24FF2487018091C00087FD11
:10F1D00017C00894E11CF11C011D111D81E0E81607
:10F1E0008CE8F8068AE0080780E0180770F3E091E1
:10F1F0000401F091050109958091C00087FFE9CFD6
:10F200008091C6001F910F91FF90EF9008950E948A
:10F21000ADF8982F80910201813049F0823091F051
:10F2200091366CF490330CF09053892F08958091AF
:10F23000C00085FFFCCF9093C60091369CF3975594
:10F24000892F08958091C80085FFFCCF9093CE0050
:10F25000E7CF1F930E9407F9182F0E9407F9129514
:10F26000107F810F1F910895982F209102019923FB
:10F2700039F0213031F0223061F091509923C9F7F3
:10F2800008958091C00087FFFCCF8091C600915007
:10F29000F5CF8091C80087FFFCCF8091CE009150C0
:10F2A000EDCF1F93182F0E94ADF8803249F0809166
:10F2B00003018F5F80930301853091F11F910895C1
:10F2C000809102018130B9F08230C1F78091C8008D
:10F2D00085FFFCCF84E18093CE008091C80085FF3C
:10F2E000FCCF1093CE008091C80085FFFCCF80E159
:10F2F0008093CE00E3CF8091C00085FFFCCF84E1F6
:10F300008093C6008091C00085FFFCCF1093C6009B
:10F310008091C00085FFFCCF80E18093C600CECFF6
:10F32000E0910401F091050109951F9108950E9453
:10F33000ADF8803241F0809103018F5F809303012B
:10F34000853029F1089580910201813089F0823061
:10F35000C9F78091C80085FFFCCF84E18093CE007F
:10F360008091C80085FFFCCF80E18093CE00089596
:10F370008091C00085FFFCCF84E18093C60080911E
:10F38000C00085FFFCCF80E18093C6000895E09126
:10F390000401F09105010995089544E151E08823A5
:10F3A000A1F02F9A28EE33E0FA013197F1F72150BE
:10F3B0003040D1F72F9828EE33E0FA013197F1F77A
:10F3C00021503040D1F7815061F708952F923F923C
:10F3D0004F925F926F927F928F929F92AF92BF9265
:10F3E000CF92DF92EF92FF920F931F93CF93DF9311
:10F3F000000081E08093020181E18093C4001092BB
:10F40000C5001092C00086E08093C20088E180931E
:10F41000C100279A82E00E94CDF994E1E92E8EE1A5
:10F42000D82E07E9C02E15E0B12EB0E1AB2E9924FD
:10F430009394A1E48A2EF6E57F2EE2E56E2E70E22B
:10F44000572E69E4462E53E5352E40E5242E0E94C2
:10F45000ADF88033B1F1813309F44FC0803409F441
:10F46000C5C0813409F4E7C0823471F1853409F4F0
:10F47000C7C0803531F1823521F1813511F18535F3
:10F4800009F4E8C0863509F4F8C0843609F418C1D7
:10F49000843709F49BC1853709F463C2863709F4C0
:10F4A000D5C0809103018F5F80930301853079F689
:10F4B000E0910401F091050109950E94ADF88033B7
:10F4C00051F60E9497F9C3CF2091020193E105C044
:10F4D000223061F09923A9F391502130C9F780912E
:10F4E000C00087FFFCCF8091C600F4CF8091C80098
:10F4F00087FFFCCF8091CE00EDCF0E94ADF8803227
:10F5000081F6809102018130D1F1823009F09FCFE4
:10F510008091C80085FFFCCFE092CE008091C800AA
:10F5200085FFFCCF8092CE008091C80085FFFCCF84
:10F530007092CE008091C80085FFFCCF6092CE0013
:10F540008091C80085FFFCCF5092CE008091C8000A
:10F5500085FFFCCF4092CE008091C80085FFFCCF94
:10F560003092CE008091C80085FFFCCF2092CE0063
:10F570008091C80085FFFCCFA092CE0068CF80911B
:10F58000C00085FFFCCFE092C6008091C00085FFDF
:10F59000FCCF8092C6008091C00085FFFCCF7092A6
:10F5A000C6008091C00085FFFCCF6092C6008091AC
:10F5B000C00085FFFCCF5092C6008091C00085FF3F
:10F5C000FCCF4092C6008091C00085FFFCCF3092F6
:10F5D000C6008091C00085FFFCCF2092C6008091BC
:10F5E000C00085FFFCCFA092C60031CF0E94ADF8CD
:10F5F000863808F466CF0E94ADF80E9497F927CFAD
:10F600002091020194E0213041F0223069F09923E9
:10F6100009F457CF91502130C1F78091C00087FF86
:10F62000FCCF8091C600F3CF8091C80087FFFCCF4C
:10F630008091CE00ECCF0E94ADF88038D1F08138B7
:10F64000D9F1823809F4BEC0883979F080E00E948F
:10F6500051F9FDCE0E94ADF8809306010E94ADF8ED
:10F66000809307010E9497F9F2CE83E00E9451F93E
:10F67000EECE82E00E9451F9EACE0E94ADF88033CE
:10F6800009F4D4C12091020192E0213039F02230F6
:10F6900061F09923D9F291502130C9F78091C000CF
:10F6A00087FFFCCF8091C600F4CF8091C80087FF10
:10F6B000FCCF8091CE00EDCF81E00E9451F9C7CE02
:10F6C0000E94ADF8809309020E94ADF88093080271
:10F6D00080910C028E7F80930C020E94ADF88534DD
:10F6E00009F489C18091080290910902892B89F05F
:10F6F00000E010E00E94ADF8F801E85FFE4F808363
:10F700000F5F1F4F80910802909109020817190797
:10F7100088F30E94ADF8803209F0C3CE80910C02CC
:10F7200080FF95C14091060150910701440F551F7C
:10F7300050930701409306016091080270910902FD
:10F7400061157105F1F080E090E09A01280F391FF2
:10F75000FC01E85FFE4FE081F999FECF1FBA32BD90
:10F7600021BDE0BD0FB6F894FA9AF99A0FBE019642
:10F770008617970750F3460F571F50930701409382
:10F78000060180910201813081F0823009F05FCE64
:10F790008091C80085FFFCCFE092CE008091C80028
:10F7A00085FFFCCFA092CE0052CE8091C00085FF95
:10F7B000FCCFE092C6008091C00085FFFCCFA092F4
:10F7C000C60045CE80E10E9451F941CE0E94ADF8BD
:10F7D000809309020E94ADF88093080220910601EF
:10F7E0003091070137FD13C180910C028D7F80930A
:10F7F0000C02220F331F30930701209306010E9451
:10F80000ADF8853409F4FDC080910C028E7F8093A1
:10F810000C020E94ADF8803209F019CE609102010D
:10F82000613009F46FC0623009F473C000910802BE
:10F83000109109020115110509F440C080910C02D4
:10F84000782F7170F82EF69481E0F822409106012D
:10F850005091070120E030E013C0FF2009F060C0A4
:10F86000FA019491613009F43BC0623009F441C05F
:10F87000CA0101962F5F3F4FAC0120173107D0F42A
:10F88000772359F3F999FECF52BD41BDF89A90B54F
:10F890006130F9F0623061F78091C80085FFFCCFDC
:10F8A0009093CE00CA0101962F5F3F4FAC01201705
:10F8B000310730F39093070180930601613009F41A
:10F8C000ACC0623009F0C3CD8091C80085FFFCCF89
:10F8D00053CE8091C00085FFFCCF9093C600C8CF67
:10F8E0008091C00085FDF9CF8091C00085FFF8CFE1
:10F8F000F4CF8091C80085FDD3CF8091C80085FFEB
:10F90000F8CFCECF8091C00085FFFCCFE092C6003B
:10F910008DCF8091C80085FFFCCFE092CE0086CFCE
:10F92000CA01A0E0B0E080509040AF4FBF4FABBFE6
:10F93000FC019791613061F0623009F099CF8091BC
:10F94000C80085FDADCF8091C80085FFF8CFA8CF56
:10F950008091C00085FDC1CF8091C00085FFF8CFA8
:10F96000BCCF0E94ADF8803209F09BCD809102019E
:10F97000813011F1823009F06ACD8091C80085FF95
:10F98000FCCFE092CE008091C80085FFFCCFD092E2
:10F99000CE008091C80085FFFCCFC092CE00809140
:10F9A000C80085FFFCCFB092CE008091C80085FFD3
:10F9B000FCCFA092CE004BCD8091C00085FFFCCF44
:10F9C000E092C6008091C00085FFFCCFD092C600B7
:10F9D0008091C00085FFFCCFC092C6008091C0001E
:10F9E00085FFFCCFB092C6008091C00085FFFCCFA0
:10F9F000A092C6002CCD80910C02816080930C02F5
:10FA000071CE80910C02816080930C0202CF8091B4
:10FA10000C02826080930C02ECCE8091C00085FDC8
:10FA2000E2CD8091C00085FFF8CFDDCD0E94ADF81A
:10FA30000E94ADF8182F0E94ADF8112309F478C088
:10FA4000113009F471C085E00E9451F900CD809118
:10FA500007018823880F880B892180930B028BBFB5
:10FA60008091060190910701880F991F90930701DB
:10FA7000809306018091080280FF09C080910802EE
:10FA80009091090201969093090280930802F894DC
:10FA9000F999FECF1127E0910601F0910701C8E026
:10FAA000D1E08091080290910902103091F4009108
:10FAB000570001700130D9F303E000935700E89537
:10FAC0000091570001700130D9F301E10093570014
:10FAD000E895099019900091570001700130D9F311
:10FAE00001E000935700E8951395103898F011271E
:10FAF0000091570001700130D9F305E000935700E1
:10FB0000E8950091570001700130D9F301E10093AD
:10FB10005700E8953296029709F0C7CF103011F0E0
:10FB20000296E5CF11242DCE87E90E9451F98FCCA2
:0CFB30008EE10E9451F98BCCF894FFCFBD
:02FB3C00800047
:040000031000F000F9
:00000001FF
