:107800000C943E3C0C945B3C0C945B3C0C945B3CB9
:107810000C945B3C0C945B3C0C945B3C0C945B3C8C
:107820000C945B3C0C945B3C0C945B3C0C945B3C7C
:107830000C945B3C0C945B3C0C945B3C0C945B3C6C
:107840000C945B3C0C945B3C0C945B3C0C945B3C5C
:107850000C945B3C0C945B3C0C945B3C0C945B3C4C
:107860000C945B3C0C945B3C0C945B3C0C945B3C3C
:107870000C945B3C0C945B3C0C945B3C11241FBE51
:10788000CFEFD8E0DEBFCDBF11E0A0E0B1E0E4EC87
:10789000F2E802C005900D92A230B107D9F712E0CC
:1078A000A2E0B1E001C01D92AD30B107E1F70E9446
:1078B000DB3D0C9460410C94003C982F9595959578
:1078C00095959595905D8F708A301CF1282F295AD7
:1078D00080910201813019F0823071F00895809119
:1078E000C00085FFFCCF9093C6008091C00085FF4B
:1078F000FCCF2093C60008958091C80085FFFCCF7F
:107900009093CE008091C80085FFFCCF2093CE00DD
:107910000895282F205DDCCF982F809102018130BF
:1079200019F0823041F008958091C00085FFFCCFAE
:107930009093C60008958091C80085FFFCCF909376
:10794000CE000895EF92FF920F931F938091020152
:10795000813069F1823031F080E01F910F91FF900A
:10796000EF900895EE24FF2487018091C80087FDE1
:1079700017C00894E11CF11C011D111D81E4E816DB
:1079800082E4F8068FE0080780E0180770F3E091C2
:107990000401F091050109958091C80087FFE9CFA6
:1079A0008091CE001F910F91FF90EF900895EE24EB
:1079B000FF2487018091C00087FD17C00894E11C57
:1079C000F11C011D111D81E4E81682E4F8068FE028
:1079D000080780E0180770F3E0910401F0910501B9
:1079E00009958091C00087FFE9CF8091C6001F9163
:1079F0000F91FF90EF9008950E94A23C982F8091E4
:107A00000201813049F0823091F091366CF490336C
:107A10000CF09053892F08958091C00085FFFCCF12
:107A20009093C60091369CF39755892F08958091C5
:107A3000C80085FFFCCF9093CE00E7CF1F930E9434
:107A4000FC3C182F0E94FC3C1295107F810F1F9167
:107A50000895982F20910201992339F0213031F0B7
:107A6000223061F091509923C9F708958091C000A8
:107A700087FFFCCF8091C6009150F5CF8091C80060
:107A800087FFFCCF8091CE009150EDCF1F93182F30
:107A90000E94A23C803249F0809103018F5F809365
:107AA0000301853091F11F91089580910201813089
:107AB000B9F08230C1F78091C80085FFFCCF84E126
:107AC0008093CE008091C80085FFFCCF1093CE003C
:107AD0008091C80085FFFCCF80E18093CE00E3CF8A
:107AE0008091C00085FFFCCF84E18093C600809127
:107AF000C00085FFFCCF1093C6008091C00085FFB9
:107B0000FCCF80E18093C600CECFE0910401F091DC
:107B1000050109951F9108950E94A23C803241F011
:107B2000809103018F5F80930301853029F10895CF
:107B300080910201813089F08230C9F78091C800BC
:107B400085FFFCCF84E18093CE008091C80085FF43
:107B5000FCCF80E18093CE0008958091C00085FF26
:107B6000FCCF84E18093C6008091C00085FFFCCFEC
:107B700080E18093C6000895E0910401F091050131
:107B80000995089540E951E08823A1F02F9A28EE45
:107B900033E0FA013197F1F721503040D1F72F98B7
:107BA00028EE33E0FA013197F1F721503040D1F758
:107BB000815061F708952F923F924F925F926F929A
:107BC0007F928F929F92AF92BF92CF92DF92EF926D
:107BD000FF920F931F93CF93DF93000081E0809378
:107BE000020180E18093C4001092C5001092C00091
:107BF00086E08093C20088E18093C100279A82E0EA
:107C00000E94C23D24E1E22E9EE1D92E85E9C82ED4
:107C100008E0B02E10E1A12E99249394B1E48B2EAC
:107C2000A6E57A2EF2E56F2EE0E25E2E79E4472E8D
:107C300063E5362E50E5252E0E94A23C8033B1F13B
:107C4000813309F44FC0803409F4C5C0813409F48C
:107C5000E7C0823471F1853409F4C7C0803531F151
:107C6000823521F1813511F1853509F4E8C0863579
:107C700009F4F8C0843609F418C1843709F495C1B1
:107C8000853709F439C2863709F4D5C080910301DC
:107C90008F5F80930301853079F6E0910401F091C4
:107CA000050109950E94A23C803351F60E948C3D4B
:107CB000C3CF2091020193E105C0223061F09923E6
:107CC000A9F391502130C9F78091C00087FFFCCF04
:107CD0008091C600F4CF8091C80087FFFCCF8091CF
:107CE000CE00EDCF0E94A23C803281F6809102014D
:107CF0008130D1F1823009F09FCF8091C80085FF9B
:107D0000FCCFE092CE008091C80085FFFCCF80922E
:107D1000CE008091C80085FFFCCF7092CE0080918C
:107D2000C80085FFFCCF6092CE008091C80085FF1F
:107D3000FCCF5092CE008091C80085FFFCCF4092CE
:107D4000CE008091C80085FFFCCF3092CE0080919C
:107D5000C80085FFFCCF2092CE008091C80085FF2F
:107D6000FCCFA092CE0068CF8091C00085FFFCCFF1
:107D7000E092C6008091C00085FFFCCF8092C600D3
:107D80008091C00085FFFCCF7092C6008091C0003A
:107D900085FFFCCF6092C6008091C00085FFFCCFBC
:107DA0005092C6008091C00085FFFCCF4092C60073
:107DB0008091C00085FFFCCF3092C6008091C0004A
:107DC00085FFFCCF2092C6008091C00085FFFCCFCC
:107DD000A092C60031CF0E94A23C863808F466CF3C
:107DE0000E94A23C0E948C3D27CF2091020194E08A
:107DF000213041F0223069F0992309F457CF915096
:107E00002130C1F78091C00087FFFCCF8091C60070
:107E1000F3CF8091C80087FFFCCF8091CE00ECCFDC
:107E20000E94A23C8038D1F08138D9F1823809F41F
:107E3000B8C0883979F080E00E94463DFDCE0E94AE
:107E4000A23C809306010E94A23C809307010E94FD
:107E50008C3DF2CE83E00E94463DEECE82E00E9451
:107E6000463DEACE0E94A23C803309F4A4C1209191
:107E7000020192E0213039F0223061F09923D9F2E9
:107E800091502130C9F78091C00087FFFCCF8091CD
:107E9000C600F4CF8091C80087FFFCCF8091CE0050
:107EA000EDCF81E00E94463DC7CE0E94A23C809368
:107EB00009020E94A23C8093080280910C028E7FEE
:107EC00080930C020E94A23C853409F45FC180912A
:107ED000080290910902892B89F000E010E00E94CD
:107EE000A23CF801E85FFE4F80830F5F1F4F809137
:107EF0000802909109020817190788F30E94A23C12
:107F0000803209F0C3CE80910C0280FF65C1609180
:107F1000060170910701660F771F70930701609348
:107F20000601A0910802B09109021097C9F0E8E09B
:107F3000F1E09B01AD014E0F5F1FF999FECF32BDFD
:107F400021BD819180BDFA9AF99A2F5F3F4FE417C6
:107F5000F50799F76A0F7B1F70930701609306017D
:107F600080910201813081F0823009F065CE8091EC
:107F7000C80085FFFCCFE092CE008091C80085FF4D
:107F8000FCCFA092CE0058CE8091C00085FFFCCFE0
:107F9000E092C6008091C00085FFFCCFA092C60091
:107FA0004BCE80E10E94463D47CE0E94A23C80938A
:107FB00009020E94A23C80930802809106019091E0
:107FC0000701880F991F90930701809306010E9473
:107FD000A23C853409F4E9C080910C028E7F809325
:107FE0000C020E94A23C803209F026CEA091020130
:107FF000A13009F473C0A23009F477C000910802DF
:10800000109109020115110509F444C080910C0278
:10801000FF24F394F822B82FB695B170E0910601D1
:10802000F0910701AF014F5F5F4FBA0120E030E0F0
:1080300013C0BB2331F49491A130F1F1A23009F4C3
:1080400044C02F5F3F4FCB010196FA012017310743
:10805000E8F4BC014F5F5F4FFF2059F3F999FECF61
:10806000F2BDE1BDF89A90B5A130F9F0A23049F720
:108070008091C80085FFFCCF9093CE002F5F3F4FCB
:10808000CB010196FA012017310718F3709307010D
:1080900060930601A13009F47FC0A23009F0CCCD75
:1080A0008091C80085FFFCCF5CCE8091C00085FF29
:1080B000FCCF9093C600C5CF8091C00085FDF9CF5D
:1080C0008091C00085FFF8CFF4CF8091C80085FD76
:1080D000D3CF8091C80085FFF8CFCECF8091C0006C
:1080E00085FFFCCFE092C60089CF8091C80085FF54
:1080F000FCCFE092CE0082CF0E94A23C803209F0F9
:10810000C5CD80910201813011F1823009F094CD0A
:108110008091C80085FFFCCFE092CE008091C8001E
:1081200085FFFCCFD092CE008091C80085FFFCCFA8
:10813000C092CE008091C80085FFFCCFB092CE00E7
:108140008091C80085FFFCCFA092CE0075CD8091B4
:10815000C00085FFFCCFE092C6008091C00085FF83
:10816000FCCFD092C6008091C00085FFFCCFC092AA
:10817000C6008091C00085FFFCCFB092C600809100
:10818000C00085FFFCCFA092C60056CD80910C02A6
:10819000816080930C029BCE8091C00085FD18CE3B
:1081A0008091C00085FFF8CF13CE80910C028160D2
:1081B00080930C0216CF0E94A23C0E94A23C182F72
:1081C0000E94A23C112309F477C0113009F470C059
:1081D00088E00E94463D30CD809107018823880FBA
:1081E000880B892180930B028091060190910701F1
:1081F000880F991F909307018093060180910802D0
:1082000080FF09C080910802909109020196909325
:10821000090280930802F894F999FECF1127E091A2
:108220000601F0910701C8E0D1E080910802909129
:108230000902103091F40091570001700130D9F318
:1082400003E000935700E89500915700017001305A
:10825000D9F301E100935700E89509901990009136
:10826000570001700130D9F301E000935700E89501
:108270001395103498F011270091570001700130C8
:10828000D9F305E000935700E8950091570001707D
:108290000130D9F301E100935700E8953296029737
:1082A00009F0C7CF103011F00296E5CF112458CE57
:1082B00085E90E94463DC0CC8EE10E94463DBCCC83
:0482C000F894FFCF60
:0282C400800038
:040000030000780081
:00000001FF
