:020000021000EC
:10F000000C9446F80C9466F80C9466F80C9466F828
:10F010000C9466F80C9466F80C9466F80C9466F8F8
:10F020000C9466F80C9466F80C9466F80C9466F8E8
:10F030000C9466F80C9466F80C9466F80C9466F8D8
:10F040000C9466F80C9466F80C9466F80C9466F8C8
:10F050000C9466F80C9466F80C9466F80C9466F8B8
:10F060000C9466F80C9466F80C9466F80C9466F8A8
:10F070000C9466F80C9466F80C9466F80C9466F898
:10F080000C9466F80C9466F80C9466F811241FBE74
:10F09000CFEFD0E4DEBFCDBF11E0A0E0B1E0E2EE03
:10F0A000F7EF01E00BBF02C007900D92A230B1074D
:10F0B000D9F71BBE12E0A2E0B1E001C01D92AD3055
:10F0C000B107E1F70E9442F90C94EFFB0C9400F8B1
:10F0D000982F9595959595959595905D8F708A301B
:10F0E0007CF0282F295A8091C00085FFFCCF909397
:10F0F000C6008091C00085FFFCCF2093C600089514
:10F10000282F205DF0CF982F8091C00085FFFCCF85
:10F110009093C6000895EF92FF920F931F93EE24F1
:10F12000FF2487018091C00087FD17C00894E11C6F
:10F13000F11C011D111D81E2E81681EAF80687E045
:10F14000080780E0180770F3E0910401F0910501D1
:10F1500009958091C00087FFE9CF8091C6001F917B
:10F160000F91FF90EF9008950E948BF8982F809157
:10F17000C00085FFFCCF9093C60091362CF49033ED
:10F180000CF09053892F08959755892F08951F9358
:10F190000E94B4F8182F0E94B4F81295107F810FC6
:10F1A0001F9108951F93182F882321F00E948BF838
:10F1B0001150E1F71F9108951F93182F0E948BF8AB
:10F1C000803249F0809103018F5F80930301853085
:10F1D000C1F01F9108958091C00085FFFCCF84E1AC
:10F1E0008093C6008091C00085FFFCCF1093C600BD
:10F1F0008091C00085FFFCCF80E18093C6001F9105
:10F200000895E0910401F091050109951F91089579
:10F210000E948BF8803241F0809103018F5F8093D0
:10F220000301853081F008958091C00085FFFCCFF7
:10F2300084E18093C6008091C00085FFFCCF80E10F
:10F240008093C6000895E0910401F09105010995AD
:10F25000089548EC50E08823A1F02F9A20ED37E084
:10F26000FA013197F1F721503040D1F72F9820ED76
:10F2700037E0FA013197F1F721503040D1F7815052
:10F2800061F708953F924F925F926F927F928F92B3
:10F290009F92AF92BF92CF92DF92EF92FF920F9325
:10F2A0001F93CF93DF93000082E08093C00080E142
:10F2B0008093C4001092C50088E18093C10086E06D
:10F2C0008093C2005098589A279A81E00E9429F9A9
:10F2D00094E1F92E8EE1E82E07E9D02E15E0C12E3B
:10F2E000B0E1BB2EAA24A394A1E49A2EF6E58F2EBA
:10F2F000E2E57E2E70E2672E69E4562E53E5452E38
:10F3000040E5342E0E948BF88033B1F18133B9F19E
:10F31000803409F46FC0813409F476C0823409F472
:10F3200085C0853409F488C0803531F1823521F1FA
:10F33000813511F1853509F485C0863509F48DC014
:10F34000843609F496C0843709F403C1853709F47B
:10F3500073C1863709F466C0809103018F5F809383
:10F360000301853079F6E0910401F09105010995DA
:10F370000E948BF8803351F60E9408F9C3CF0E9497
:10F380008BF8803249F78091C00085FFFCCFF09266
:10F39000C6008091C00085FFFCCF9092C60080918E
:10F3A000C00085FFFCCF8092C6008091C00085FF21
:10F3B000FCCF7092C6008091C00085FFFCCF6092A8
:10F3C000C6008091C00085FFFCCF5092C60080919E
:10F3D000C00085FFFCCF4092C6008091C00085FF31
:10F3E000FCCF3092C6008091C00085FFFCCFB09268
:10F3F000C60088CF0E948BF8863808F4BDCF0E94E3
:10F400008BF80E9408F97ECF0E948BF8803809F4AF
:10F410009CC0813809F40CC1823809F440C1883994
:10F4200009F48FC080E00E94DCF86CCF84E10E9478
:10F43000D2F80E9408F966CF85E00E94D2F80E94B7
:10F4400008F960CF0E948BF8809306010E948BF828
:10F45000809307010E9408F955CF0E948BF88033F2
:10F4600009F421C183E00E94D2F880E00E94DCF818
:10F4700049CF0E948BF8809309020E948BF88093F9
:10F48000080280910C028E7F80930C020E948BF800
:10F49000853409F419C18091080290910902892BE1
:10F4A00089F000E010E00E948BF8F801E85FFE4F61
:10F4B00080830F5F1F4F8091080290910902081707
:10F4C000190788F30E948BF8803209F045CF8091AC
:10F4D0000C0280FF0BC16091060170910701660F5D
:10F4E000771F7093070160930601A0910802B09105
:10F4F00009021097C9F0E8E0F1E09B01AD014E0F61
:10F500005F1FF999FECF32BD21BD819180BDFA9A6E
:10F51000F99A2F5F3F4FE417F50799F76A0F7B1FA2
:10F5200070930701609306018091C00085FFFCCFB6
:10F53000F092C6008091C00085FFFCCFB092C6005B
:10F54000E1CE83E00E94DCF8DDCE82E00E94DCF8B0
:10F55000D9CE0E948BF8809309020E948BF8809389
:10F560000802209106013091070137FDB9C0809152
:10F570000C028D7F80930C02220F331F3093070102
:10F58000209306010E948BF8853409F4A3C0809172
:10F590000C028E7F80930C020E948BF8803209F05F
:10F5A000B1CE8091C00085FFFCCFF092C600609183
:10F5B0000802709109026115710531F180910C0208
:10F5C000082F0170182F16951170209106013091A7
:10F5D000070140E050E0002301F5112309F050C07D
:10F5E000F90194918091C00085FFFCCF9093C600F3
:10F5F000C90101964F5F5F4F9C014617570758F3AB
:10F6000090930701809306018091C00085FDEFCEA5
:10F610008091C00085FFF8CFEACEF999FECF32BDC8
:10F6200021BDF89A90B58091C00085FFFCCFDECF58
:10F6300081E00E94DCF866CE0E948BF8803209F0EF
:10F640008BCE8091C00085FFFCCFF092C6008091E8
:10F65000C00085FFFCCFE092C6008091C00085FF0E
:10F66000FCCFD092C6008091C00085FFFCCFC09235
:10F67000C6008091C00085FFFCCFB092C60042CE8C
:10F68000C901A0E0B0E080509040AF4FBF4FABBF8A
:10F69000FC0197918091C00085FFFCCFA7CF80E14E
:10F6A0000E94DCF82FCE0E948BF80E948BF8182F56
:10F6B0000E948BF8112309F48AC0113009F48BC021
:10F6C00085E00E94DCF81ECE80910C028160809360
:10F6D0000C02E1CE80910C02816080930C025CCF21
:10F6E00080910C02826080930C0246CF80910701CA
:10F6F0008823880F880B8A2180930B028BBF80910F
:10F70000060190910701880F991F9093070180933C
:10F7100006018091080280FF09C080910802909143
:10F72000090201969093090280930802F894F999CE
:10F73000FECF1127E0910601F0910701C8E0D1E06A
:10F740008091080290910902103091F400915700C5
:10F7500001700130D9F303E000935700E895009160
:10F76000570001700130D9F301E100935700E8958B
:10F77000099019900091570001700130D9F301E010
:10F7800000935700E8951395103898F011270091D1
:10F79000570001700130D9F305E000935700E89558
:10F7A0000091570001700130D9F301E10093570037
:10F7B000E8953296029709F0C7CF103011F0029603
:10F7C000E5CF11248091C00085FFAECEB1CE8EE191
:10F7D0000E94DCF897CD87E90E94DCF893CDF8947D
:02F7E000FFCF59
:02F7E2008000A5
:040000031000F000F9
:00000001FF
