:103800000C943E1C0C945B1C0C945B1C0C945B1C79
:103810000C945B1C0C945B1C0C945B1C0C945B1C4C
:103820000C945B1C0C945B1C0C945B1C0C945B1C3C
:103830000C945B1C0C945B1C0C945B1C0C945B1C2C
:103840000C945B1C0C945B1C0C945B1C0C945B1C1C
:103850000C945B1C0C945B1C0C945B1C0C945B1C0C
:103860000C945B1C0C945B1C0C945B1C0C945B1CFC
:103870000C945B1C0C945B1C0C945B1C11241FBEF1
:10388000CFEFD4E0DEBFCDBF11E0A0E0B1E0E8E9CA
:10389000FFE302C005900D92A230B107D9F712E004
:1038A000A2E0B1E001C01D92AD30B107E1F70E9486
:1038B000371D0C94CA1F0C94001C982F9595959554
:1038C00095959595905D8F708A307CF0282F295AB8
:1038D0008091C00085FFFCCF9093C6008091C0000E
:1038E00085FFFCCF2093C6000895282F205DF0CFE0
:1038F000982F8091C00085FFFCCF9093C60008955B
:10390000EF92FF920F931F93EE24FF248701809183
:10391000C00087FD17C00894E11CF11C011D111D9A
:1039200081E4E81682E4F8068FE0080780E01807D3
:1039300070F3E0910401F091050109958091C000B8
:1039400087FFE9CF8091C6001F910F91FF90EF9004
:1039500008950E94801C982F8091C00085FFFCCFA5
:103960009093C60091362CF490330CF09053892F2D
:1039700008959755892F08951F930E94A91C182F09
:103980000E94A91C1295107F810F1F9108951F930B
:10399000182F882321F00E94801C1150E1F71F91FD
:1039A00008951F93182F0E94801C803249F0809147
:1039B00003018F5F809303018530C1F01F9108954B
:1039C0008091C00085FFFCCF84E18093C600809188
:1039D000C00085FFFCCF1093C6008091C00085FF1A
:1039E000FCCF80E18093C6001F910895E09104010F
:1039F000F091050109951F9108950E94801C803265
:103A000041F0809103018F5F80930301853081F045
:103A100008958091C00085FFFCCF84E18093C600AB
:103A20008091C00085FFFCCF80E18093C60008959F
:103A3000E0910401F09105010995089540E951E0F4
:103A40008823A1F02F9A20ED37E0FA013197F1F7A2
:103A500021503040D1F72F9820ED37E0FA0131970F
:103A6000F1F721503040D1F7815061F708953F922E
:103A70004F925F926F927F928F929F92AF92BF927E
:103A8000CF92DF92EF92FF920F931F93CF93DF932A
:103A9000000080E18093C4001092C50088E180930B
:103AA000C10086E08093C2005098589A279A81E01E
:103AB0000E941E1D24E1F22E9EE1E92E84E9D82EFB
:103AC0000AE0C02E10E1B12EAA24A394B1E49B2EEB
:103AD000A6E58A2EF2E57F2EE0E26E2E79E4572EDF
:103AE00063E5462E50E5352E0E94801C8033B1F1EF
:103AF0008133B9F1803409F46FC0813409F476C0A0
:103B0000823409F485C0853409F488C0803531F1E8
:103B1000823521F1813511F1853509F485C086356D
:103B200009F48DC0843609F496C0843709F403C1C2
:103B3000853709F472C1863709F466C080910301A4
:103B40008F5F80930301853079F6E0910401F09155
:103B5000050109950E94801C803351F60E94FD1CCE
:103B6000C3CF0E94801C803249F78091C00085FF3E
:103B7000FCCFF092C6008091C00085FFFCCF9092F0
:103B8000C6008091C00085FFFCCF8092C600809166
:103B9000C00085FFFCCF7092C6008091C00085FFF9
:103BA000FCCF6092C6008091C00085FFFCCF509290
:103BB000C6008091C00085FFFCCF4092C600809176
:103BC000C00085FFFCCF3092C6008091C00085FF09
:103BD000FCCFB092C60088CF0E94801C863808F4C3
:103BE000BDCF0E94801C0E94FD1C7ECF0E94801CC5
:103BF000803809F49CC0813809F40BC1823809F47B
:103C000030C1883909F48FC080E00E94D11C6CCF8C
:103C100084E10E94C71C0E94FD1C66CF85E00E94C3
:103C2000C71C0E94FD1C60CF0E94801C809306016F
:103C30000E94801C809307010E94FD1C55CF0E94AA
:103C4000801C803309F411C183E00E94C71C80E00E
:103C50000E94D11C49CF0E94801C809309020E94BF
:103C6000801C8093080280910C028E7F80930C024E
:103C70000E94801C853409F409C18091080290914A
:103C80000902892B89F000E010E00E94801CF801F5
:103C9000E85FFE4F80830F5F1F4F80910802909175
:103CA00009020817190788F30E94801C803209F066
:103CB00045CF80910C0280FFF5C0609106017091A4
:103CC0000701660F771F7093070160930601A091AB
:103CD0000802B09109021097C9F0E8E0F1E09B01F9
:103CE000AD014E0F5F1FF999FECF32BD21BD81910D
:103CF00080BDFA9AF99A2F5F3F4FE417F50799F7BD
:103D00006A0F7B1F70930701609306018091C000CA
:103D100085FFFCCFF092C6008091C00085FFFCCFEC
:103D2000B092C600E1CE83E00E94D11CDDCE82E0DD
:103D30000E94D11CD9CE0E94801C809309020E944F
:103D4000801C809308028091060190910701880FE2
:103D5000991F90930701809306010E94801C85346F
:103D600009F49AC080910C028E7F80930C020E940D
:103D7000801C803209F0B8CE8091C00085FFFCCF56
:103D8000F092C600A0910802B09109021097C1F10B
:103D900080910C02082F0170182F16951170E09178
:103DA0000601F0910701AF014F5F5F4FBA0120E0BC
:103DB00030E00023B1F4112339F494918091C000D4
:103DC00085FFFCCF9093C6002F5F3F4FCB0101963C
:103DD000FA012A173B0780F4BC014F5F5F4F0023B5
:103DE00051F3F999FECFF2BDE1BDF89A90B58091FB
:103DF000C00085FFFCCFE6CF7093070160930601FA
:103E00008091C00085FDE5CE8091C00085FFF8CF90
:103E1000E0CE81E00E94D11C67CE0E94801C8032DF
:103E200009F08CCE8091C00085FFFCCFF092C600D7
:103E30008091C00085FFFCCFE092C6008091C00059
:103E400085FFFCCFD092C6008091C00085FFFCCFDB
:103E5000C092C6008091C00085FFFCCFB092C60022
:103E600043CE80E10E94D11C3FCE0E94801C0E9464
:103E7000801C182F0E94801C112309F483C011306C
:103E800009F484C08AE00E94D11C2ECE80910C02DD
:103E9000816080930C02F1CE80910C02816080934E
:103EA0000C0265CF809107018823880F880B8A2137
:103EB00080930B028091060190910701880F991F52
:103EC00090930701809306018091080280FF09C04A
:103ED00080910802909109020196909309028093C3
:103EE0000802F894F999FECF1127E0910601F091AC
:103EF0000701C8E0D1E080910802909109021030DA
:103F000091F40091570001700130D9F303E0009360
:103F10005700E8950091570001700130D9F301E195
:103F200000935700E895099019900091570001708F
:103F30000130D9F301E000935700E8951395103450
:103F400098F011270091570001700130D9F305E076
:103F500000935700E8950091570001700130D9F3A4
:103F600001E100935700E8953296029709F0C7CF18
:103F7000103011F00296E5CF11248091C00085FF2A
:103F8000C5CEC8CE8EE10E94D11CAECD84E90E9480
:083F9000D11CAACDF894FFCF6B
:023F98008000A7
:0400000300003800C1
:00000001FF
